:100000000C946A020C94B1020C94CC020C94B102D0
:100010000C94B1020C94B1020C9468230C94B102BC
:100020000C94B1020C94B1020C94B1020C94B10284
:100030000C94B1020C94B1020C9427230C94B102DD
:100040000C94B1020C94B1020C94B1020C94B10264
:100050000C94B1020C94B1020C94B1020C94B10254
:100060000C94B1020C94B102C009C009F809F80956
:100070008B0AA70A7E0C7E0CB40A910BA00BA00B76
:1000800007111D1127116412641260116F117E1186
:1000900064128911B311C611DE11E111371A371A32
:1000A000491A491A401A491A491A491A371A371A65
:1000B000451A491A491A451A010001004402000074
:1000C000020002004002000003000100450200009F
:1000D000040002002A02201305000100460200006D
:1000E000060002002C02000007000200420200008D
:1000F0000800010047020000090002002E02FB1266
:100100000A0002003002FB120B0002003202FB1256
:100110000C0002003402FB120D0002003602FB123A
:100120000E0002003802FB120F0002003A02FB121E
:10013000100002003C02FB12110002003E02FB1202
:100140001200020048020000130002004A020000F0
:10015000FD377A585A000004E6D6B4460200210161
:1001600016000000742FE5A3E000AF008D5D003D98
:100170008889C65436C3174FE4E176C7F3E273218A
:100180008B3F1F9A0D106056877DF696479E4192D1
:100190001E6B9F55EF040C3A2F1AD1571246B85ECA
:1001A000A8FCB3D480E7357B87FF572335B36F9521
:1001B00056842EB3AFC83D84DB66036DF62C423DFA
:1001C0009DB7527005B32998FF5709B48A2D18427C
:1001D000FDDC14F8F83109644F5FD58DB5E11B28BB
:1001E000015B939F490EAF649E3B1060765D1D914D
:1001F0003076E67F47CC80860FB8E900000000002B
:10020000C55B6FD64E4F95940001A901B001000067
:10021000E69996DCB1C467FB020000000004595A5D
:100220005C005D005E0059005A005B0001000100A7
:1002300001000100010001000100010001000100B6
:1002400001000100010001000100010001000100A6
:100250000100010001000100010001000100010096
:100260000100010001000100010001000100010086
:100270000100010001000100010001000100010076
:10028000000000000000000000000000000000006E
:10029000000000000000000000000000000000005E
:1002A000000000007E0F00D4FFFFFFC700000078B1
:1002B00000000000000000002A2B280000000000C1
:1002C0000000000000000000000000290000000005
:1002D0002C1E3420212224342627252E362D373873
:1002E000271E1F202122232425263333362E37387C
:1002F0001F0405060708090A0B0C0D0E0F1011123A
:10030000131415161718191A1B1C1D2F3130232D05
:10031000350405060708090A0B0C0D0E0F10111203
:10032000131415161718191A1B1C1D2F3130354CB4
:1003300005010902A10185020901A10005091901B0
:1003400029051500250195057501810295017503A3
:1003500081030501093009311581257F9502750852
:10036000810609381581257F950175088106050CE0
:100370000A38021581257F950175088106C0C005E0
:10038000010980A101850319012AB700150126B7CB
:1003900000950175108100C0050C0901A1018504BB
:1003A00019012AA002150126A002950175108100ED
:1003B000C00660FF0961A1010962150026FF0095D2
:1003C00020750881020963150026FF009520750835
:1003D0009102C005010906A101050719E029E715E9
:1003E00000250195087501810295017508810305B5
:1003F00007190029FF150026FF00950675088100E2
:1004000005081901290595057501910295017503E6
:100410009103C01C037600690061006C003A00661D
:1004200000360034006300320062003300630000D5
:10043000001C034B0061006200650044006F006E09
:1004400000200036004B00650079007300000012A8
:10045000034B006100620065005F0044006F006EA6
:100460000000000403090409025B00030100A0FA74
:10047000090400000103010100092101010001221A
:100480004000070581030800010904010002030080
:100490000000092101010001222200070584030850
:1004A000000107050403080001090402000103001C
:1004B00000000921010100012281000705830308D2
:1004C00000011201100100000008444B364B0200ED
:1004D0000102030111241FBECFEFD8E0DEBFCDBF64
:1004E00004B603FE27C080910E0490910F04A091E2
:1004F0001004B09111048730904BA740B04BD1F459
:1005000010920E0410920F04109210041092110415
:1005100014BE84B7877F84BF0FB6F894A8958091E6
:100520006000886180936000109260000FBEE0E080
:10053000F8E3099511E0A0E0B1E0EAE5F4E502C0D6
:1005400005900D92AA35B107D9F724E0AAE5B1E0EC
:1005500001C01D92AE30B207E1F70E94F30C0C947B
:100560002B2A0C940000A82FB92F80E090E041E0E6
:1005700050EA609530E009C02D91822797958795C4
:1005800010F084279527305EC8F36F5FA8F30895B5
:10059000EADF8D939D930895CF93CFB7CF93DF93E9
:1005A000C3954B9BE9F74B9B10C04B9B0EC04B9BDD
:1005B0000CC04B9B0AC04B9B08C04B9B06C0C09114
:1005C000C203C395C093C2038EC06F93C091E90369
:1005D000DD27C451DC4F2F9365E54B9B03C02F9162
:1005E0006F91E1CF0F931F934F9320E040E15F9312
:1005F00009B10C7003FB27F93F9350E03BE039C091
:100600001C7040642F77012F5F5F1EC0406819B1D6
:100610001C702F7752501FC0406409B12F770C70A7
:10062000D1F15F5F00C023C0406219B12F771C7009
:1006300091F15F5F00C025C00C701027515012F47B
:100640005D5F0000115027952C3F19B1C8F61C7052
:100650000127015027952C3FC8F64227499309B13D
:100660000C7010274F73115027952C3FA8F6469514
:10067000469519B11C7079F00127015027952C3F40
:1006800098F66B5A60F3315009B1B0F600C012E031
:100690001CBB00271CC03B503195C31BD04012E04F
:1006A0001CBB0881033C21F10B3411F12091E703BD
:1006B0001981110F1213EDCF4A81441F093679F1C8
:1006C0000D3211F0013E29F74F7009F0042F00930D
:1006D000C3033F915F914F911F910F912F916F91A4
:1006E000CCB3C1FD5DCFDF91CF91CFBFCF91189536
:1006F0002091C303222369F31091EA03112309F027
:1007000049C034300AF448C03093EA032093E80328
:100710001091E9033BE0311B3093E9033DC00091A8
:10072000EA030130BCF50AE54F7049F430911A0133
:1007300034FD33C000931A01C4ECD3E032C043301F
:1007400059F0443091F03091CF0334FD26C000932E
:10075000CF03C0EDD3E025C03091020434FD1DC0AD
:1007600000930204C3E0D4E01CC03091DB0334FDED
:1007700014C00093DB03CCEDD3E013C0052710E0D9
:1007800000C000000BB91AC0052710E0221F1DC0D1
:1007900010E021C04AE502C032ED432FC4E1D0E0B1
:1007A00032E01AB11C605B9A0BB11AB95CE020E828
:1007B00065E320FF05270BB9279517951C3FF0F639
:1007C0006695B8F7B1F720FF05270BB92795179560
:1007D0001C3FD0F62795179517FF052700001C3FF3
:1007E0000BB9B0F629913A9519F7037F1091EB03F5
:1007F000110FC651D0400BB911F01093E70312E06E
:100800001CBB08601AB1137F402F437F54E05A95F8
:10081000F1F70BB91AB94BB95CCF2F923F924F92B7
:100820005F926F927F928F929F92AF92BF92CF9280
:10083000DF92EF92FF920F931F93CF93DF93CDB789
:10084000DEB764970FB6F894DEBF0FBECDBF7C0154
:10085000DC0113964D915C91149711966C91119750
:100860008C910E94492681110C94DA0C21E0F70149
:10087000408151816281738184810E94BB228C01FD
:10088000D70112968C91811105C0F7014281411167
:1008900040C0C0C0809100018F3FB9F3BEE5CB2EB0
:1008A000B1E0DB2EA12CB12C99249394809100010E
:1008B000082E000C990B8A159B053CF3D601169661
:1008C0008C9116978823F1F019968D919C911A9727
:1008D0000817190739F480915C0190915D010817A0
:1008E000190781F0F60197861487038781898111A2
:1008F00003C0C6010E94CD13C60106960E94EE13E6
:100900001092FE02FFEFAF1ABF0A26E1C20ED11C01
:10091000CDCFC80182519F45409708F094C08FEF1A
:1009200093E00E949C2981117FC0AEEEDA2ED00E9A
:1009300009E411E0DD2071F0011544E0140709F429
:1009400073C0C8010E949C29811101C0DA940F5F15
:100950001F4FF0CF19821A821B821C82AA24AA94EC
:1009600068015FEFC51AD50AC8010E949C298983D6
:100970001A82882309F458C0813009F046C0480122
:1009800082E0880E911CC6010E949C298A838823DC
:1009900009F44AC09FEF980F933060F4680193E028
:1009A000C90ED11CC4010E949C298B8381112DC0CA
:1009B0008601D6CF843011F06401FACFC4010E94C1
:1009C0009C29B82E6801A4E0CA0ED11CC801039668
:1009D0000E949C29BB2041F1882331F1282F30E06F
:1009E00021503109A29EA001A39E500D11248B2DF0
:1009F00090E00197840F951F0197D0F2EFE9FFE097
:100A00003197F1F700C00000F7CFCE0101960E94A8
:100A10000822CECF0031FFE51F0709F02FC481E087
:100A20000E94A6250E9454278091FB02877009F43A
:100A3000C1C7D70112968C91882309F4BBC782E005
:100A40000E94CB25B7C70031BFE51B0711F481E039
:100A500005C00131EFE51E0721F482E00E94E82580
:100A6000E1CFC80197558F3F910511F008F057C0AD
:100A700020910001022E000C330B2817390714F4C3
:100A80008093000126E1289F5001299FB00C11247A
:100A9000C501825A9E4F6C01DC0150964C935097D1
:100AA000F701928116968C911697992369F11A96FF
:100AB0001C930E9319978F5F16968C930E945C235C
:100AC000D6011E969C938E931D97809101031796D5
:100AD0008C9317979091FE028091FD02892B1896B6
:100AE0008C931897ED91FC911197C5018C599E4FED
:100AF000309729F054966D917C91559709951093F4
:100B00005D0100935C010BC08823B1F0F60181897F
:100B1000882391F0C5018C599E4F0E94EE13073F28
:100B2000FCE51F0749F4D70112968C91882321F127
:100B300081E0809301013DC1083FBCE51B0771F4D2
:100B4000F70182818823C1F01092010110921E02E8
:100B500010921D0281E00E9447142BC1093FFCE561
:100B60001F0751F4D70112968C91882329F08091A8
:100B700001018823E9F2E8CF40900101442009F403
:100B800018C11092210210922002612CE5E05E2E25
:100B900088248394912C33243394A0902002B09025
:100BA0002102F8E0AF16B10408F0CFC05A9CF00162
:100BB0005B9CF00D1124E45BFD4FBE01655F7F4F30
:100BC00080810E947115892B11F0712CB3C0FE0138
:100BD0003B9680E090E022242A94282F4191519165
:100BE0004115510551F00417150709F4282E0196F7
:100BF0008430910591F724E002C0823030F3BFEFDA
:100C00002B1619F3F7017280772009F448C05A9C1B
:100C1000C0015B9C900D1124AC01445B5D4F6A01E7
:100C2000C40101C0880F2A94EAF7DA0114969C9156
:100C30001497892B14968C93F40102C0EE0FFF1FBA
:100C40002A95E2F79F012150310990E08F7728170C
:100C5000390709F06EC080E00E944714D60114964F
:100C60008C911497806814968C93149712968D919A
:100C70009C911397009719F00E94FA220DC0BE01B3
:100C80006F5F7F4F809120020E947115892B21F4A4
:100C900089859A850E941B1930921F024BC0F4016E
:100CA00002C0EE0FFF1F2A95E2F79F012150310984
:100CB0005A9CF0015B9CF00D1124E45BFD4F848194
:100CC00090E08F7728173907A1F4828193810097EC
:100CD00019F00E94E4220DC0BE016F5F7F4F80912A
:100CE00020020E947115892B21F489859A850E9422
:100CF00092185A9CF0015B9CF00D1124E45BFD4FAF
:100D00009481292F30E0022C02C0359527950A9452
:100D1000E2F720FF5ACF940101C0220F2A94EAF78C
:100D2000822F80958923848387FF4FCF803809F4F1
:100D30001482742C672880912002909121020196E0
:100D4000909321028093200228CF80911F02882354
:100D500059F00E945C2390931E0280931D02109212
:100D60001F02611061CE25C0611006C081E00E94A3
:100D700047140E9435141DC0D70112968C91882308
:100D800009F452CE0E945C2390931E0280931D02B0
:100D9000E0911C02E73008F047CE81E08E0F80938F
:100DA0001C02F0E0EE0FFF1FE25FFD4F1183008396
:100DB0003BCE8091450280FF65C00E945C236C01A0
:100DC000F7018281882379F18091020182FF06C0B8
:100DD00040E0B60180E090E00E946C1382E00E9447
:100DE00068240B31FCE51F0779F00C312CE5120764
:100DF00089F00A314CE51407B1F480910201982F73
:100E0000909590FB80F909C08091020181608093E8
:100E100002017FC0809102018E7F8093020182E0F7
:100E20000E94682476C00832110538F40E3111058D
:100E3000B8F40430110578F425C00933110538F4ED
:100E40000D32110590F40B32110579F01BC00436F8
:100E5000110559F017C08091450284FD13C009C0E7
:100E60008091450283FD0EC004C08091450282FD41
:100E700009C0F7018281882309F4B5C1809102017C
:100E800080FD75C1033FBCE51B0741F190F4083DAF
:100E9000FCE51F07E9F0093D2CE5120789F1073D44
:100EA0004CE51407B1F506E221EE41EE67ED7CE575
:100EB0002CC0053F5CE51507E9F0B0F0063F9CE566
:100EC000190739F507E225EE46EE66EF7CE51DC011
:100ED00007E225EE45EE68ED7CE517C006E221EE5F
:100EE00040EE63EF7CE511C007E225EE44EE64EFCF
:100EF0007CE50BC006E221EE42EE65EF7CE505C025
:100F000008E221E045EE69ED7CE5C7010E94671427
:100F10008BCDD70112962C91222309F46AC110922D
:100F200026020230BCE51B0708F463C10631ECE57C
:100F30001E0730F0C8018A5F9C45099708F059C127
:100F40000E94E12390937502809374020031FCE5C6
:100F50001F0709F4C3C008F041C008304CE514076E
:100F600009F49AC0F0F404308CE5180709F487C03E
:100F700068F40230ACE51A0709F477C003301C4569
:100F800009F0E5C080917402826076C00630ECE51D
:100F90001E0709F46EC008F07BC08091740288605F
:100FA0006BC00C302CE5120709F485C068F40A30D8
:100FB0005CE5150709F474C008F079C00E946F1A47
:100FC00080917402806858C00E309CE5190709F4BE
:100FD00076C008F07FC0809174028BC00B3FBCE5E7
:100FE0001B0709F44FC018F50331FCE51F0709F48E
:100FF0007DC078F401314CE5140709F473C0023167
:101000001C4509F0A4C00E946F1A809174028F776A
:1010100033C005318CE5180709F472C008F486C0A6
:101020000A3F1C4509F093C0809175023EC00F3FF6
:10103000BCE51B0709F45FC058F40D3FFCE51F0732
:1010400009F444C008F43FC08091750282602DC04D
:1010500001304DE5140709F475C008F45DC0023095
:101060001D4509F074C060E06EC08091740281601B
:1010700003C08091740280618093740268C0809183
:10108000740211C0809175028260809375025FC006
:10109000809174028062F0CF809174028064ECCF02
:1010A0008091740288608460E7CF8160EECF809188
:1010B00074028E7FE1CF809174028D7FDDCF8091AD
:1010C0007402877FD9CF8091750218C08091750214
:1010D0008D7FDBCF809174028F7ECECF80917402A2
:1010E0008F7DCACF809174028F7BC6CF80917402AE
:1010F000877F8B7FC1CF809175028D7F8E7FC5CF1B
:101100008091740282FB222720F991E0922790FBC4
:1011100082F990FB83F9B0CF80917502982F90955A
:1011200091708E7F892B90FB81F9AFCF0E946F1A4F
:101130008091740287FB222720F991E0922790FB8F
:1011400087F99ACF61E08EE090E00E94AA29609131
:1011500074021091750284E090E00E94AA29612F28
:1011600082E290E00E94AA290E946F1A5DCC9091C1
:10117000450291FD04C02091FD02211183CE95FF0F
:1011800021C02091240230912502D601A21BB30B6D
:101190009D0196FD02C081FD15C0283C310590F4EB
:1011A00020912202309123020217130759F481FF84
:1011B00005C08091FE0282608093FE02802F0E9413
:1011C000DA1A32CC1093230200932202D092250225
:1011D000C09224028091020184608093020182E027
:1011E0000E94CB2521CC40E0B601C8010E946C13BF
:1011F0001BCC0631FCE51F0709F047C08091FD02BA
:10120000982F9A7A3091440230FF04C0482F4474DA
:1012100009F090E031FF04C0482F417109F090E0DF
:1012200032FF04C0482F487809F090E033FF02C035
:10123000827261F42223A1F081E0911101C080E06B
:1012400080932702992331F065E305C0222341F002
:101250001092270269E283EB92E00E94C7230BC041
:1012600080912702882311F065E301C069E283EBD6
:1012700092E00E94BA230E94B124D6CB01312FE51F
:10128000120709F0EECB82E0CBCB222389F10A359D
:101290009DE5190741F150F40115BCE51B07A9F0C4
:1012A0000E3D1C4529F50E94F223BECB0B35FDE512
:1012B0001F07D9F00C351D45D9F48091750282FBCA
:1012C000882780F991E0892711C00E946F1A4FEF9B
:1012D00054E38CE0415050408040E1F700C00000F2
:1012E0000E941223A1CB81E001C080E00E947624FD
:1012F000D70112968C9112970D911C91882349F079
:10130000C8010E94F224D82E682FC8010E946F25C0
:1013100004C0C8010E943F25D82EB8018D2D0E941F
:1013200079208C01882EF701B280C580C2946FE0CD
:10133000C6228091FB02877099F0BB2089F0812F33
:10134000807F803421F080E2800F883048F082E096
:101350000E94CB258091FB028770AA24A39481115F
:10136000A12C912E92945FE09522892D90E08C30F3
:10137000910508F0C3C2FC01EC5CFF4F0C940E2AEF
:10138000912F9F70812F807FD92E19F0D29440EF3A
:10139000D422BB20B9F0DD2009F48EC280E2800F98
:1013A000883010F0811006C08091FD02D82AD092BA
:1013B000FD0205C08091FE02D82AD092FE020E9452
:1013C000B1247AC2802F0E947A1ADD2009F496C2D5
:1013D00080E2800F883010F0811004C08D2D0E94B3
:1013E0006F2403C08D2D0E9468240E94B12486C200
:1013F000912F9F70812F807FD92E803219F0D29447
:1014000030EFD322882029F0F1E08F1609F44FC085
:101410005CC0BB2079F1CC2039F144244394C41042
:1014200013C08091750282FD69C280910103D82AA0
:10143000D81609F463C20E945C2390930003809342
:10144000FF02D09201035AC280914602823060F0BE
:10145000C8120AC00E945D248091F802D81609F4CF
:1014600052C0D092F8024FC0809101038D290E9492
:10147000111A44C2CC2081F0809146025524539425
:10148000C51010C0823008F439C28091FD028D2150
:1014900009F434C20E94EC240E945D248D2D0E9428
:1014A000221A2CC28230C0F3C812F6CF27C2BB204A
:1014B00031F025E0622E6C1408F420C224C094E0C0
:1014C000792E7C1408F41AC2E9CFBB20F1F0CC20AD
:1014D000D1F020E0D7014C9111965C9111971296B2
:1014E0006C91129713967C91139714968C910E948D
:1014F000BB228091470281FDDFC1F701858180FF1A
:10150000DBC18F7085838D2DB2CFCC2039F2F9E30A
:101510008F12E4C1DEC1812F86958695837019F004
:10152000813059F0EBC1BB2019F0C801937002C0A3
:1015300080E090E00E944A13E1C1BB2019F0C8018D
:10154000937002C080E090E00E943413D7C1802FD6
:10155000BB2029F00E94E41E0E94071702C00E94CF
:1015600031170E940717CAC1812F837009F06AC022
:10157000B110C4C1902F929596959770990F990FBD
:10158000802F8F70482E512C612C712C092E04C095
:10159000440C551C661C771C0A94D2F704FF12C039
:1015A0004FE050E060E070E004C0440F551F661F3C
:1015B000771F9A95D2F7DB01CA0180959095A09587
:1015C000B09503C080E090E0DC01612F66956695E0
:1015D00063706230D9F068F5209102033091030303
:1015E0004091040350910503613059F084299529F5
:1015F000A629B729BC01CD01622373238423952337
:101600001EC0422A532A642A752A13C084299529A8
:10161000A629B72940900203509003036090040369
:1016200070900503BC01CD0164257525862597259D
:1016300006C0BC01CD0164297529862997290E941D
:101640001F265CC1BB2019F0812F817001C08695D7
:10165000882309F453C1902F929596959770990F0E
:10166000990F802F8F70482E512C612C712C092ED0
:1016700004C0440C551C661C771C0A94D2F704FF66
:1016800012C04FE050E060E070E004C0440F551F0E
:10169000661F771F9A95D2F7DB01CA018095909556
:1016A000A095B09503C080E090E0DC01612F6695C5
:1016B000669563706230D9F068F52091BE03309171
:1016C000BF034091C0035091C103613059F0842998
:1016D0009529A629B729BC01CD0162237323842350
:1016E000952391C0422A532A642A752A13C084295B
:1016F0009529A629B7294090BE035090BF0360905A
:10170000C0037090C103BC01CD01642575258625F9
:10171000972579C0BC01CD016429752986299729AF
:1017200072C0212F2F70D22EBB2029F0822F0E9451
:10173000E825802F9CCE802F0E94221A8D2DDAC0A2
:10174000802F42EF841609F443C0481538F050EF5B
:10175000851661F091EF8916A9F1AAC0A3EF8A1648
:10176000E9F1B4EF8B1609F451C0A2C0BB2029F0F7
:10177000E4E0EC1508F4C2C005C085E0582E5C1406
:1017800008F4BCC0212F2F7181E090E0A0E0B0E010
:10179000AC01BD0104C0440F551F661F771F2A9579
:1017A000D2F78091BE039091BF03A091C003B09186
:1017B000C1032A013B01482659266A267B26C3011C
:1017C000B20121C0812F8F71BB2009F493C07AC070
:1017D000812F8F71BB2009F475C08CC0BB2081F0B4
:1017E000212F2F7181E090E0A0E0B0E0BC01CD019D
:1017F00004C0660F771F881F991F2A95D2F703C070
:1018000060E070E0CB010E949C2578C09091460278
:101810009230B8F1BB20F1F08091F8020E946F2461
:101820008091FB028770843039F40E949024812FCC
:101830008F710E94A62561C080914602C81608F0EB
:101840005CC0212F2F71D22E822F0E94E82563E0E9
:101850008D2D10C02091FD028091F802822B809383
:10186000FD02C91650F00E9490240E94EC2464E00E
:10187000812F8F710E94092640C081E00E94CB25F4
:101880003CC0BB2059F0412F4F71D42E842F0E94B1
:10189000E82563E08D2D0E94092630C081E00E947A
:1018A000CB2551E05C1550F582E00E94CB2526C087
:1018B000BB2059F0CC2021F0802F0E94DA1A1EC0E4
:1018C000812F8F710E94E82519C0CC2089F08933BF
:1018D00029F480914A0290914B0204C08091480201
:1018E000909149020E942913802F0E947A1A06C003
:1018F000812F8F710E94A62501C0A12C88EF890D30
:10190000843010F40E946013C8010E94291A8111CA
:1019100005C0109229021092280225C0BB2019F0A0
:10192000C110F7CF20C0C110F4CF20E0D7014C91F7
:1019300011965C91119712966C91129713967C9167
:10194000139714968C910E94BB228091470283FFCB
:10195000E0CF80912802909129020297D1F6802F42
:101960000E947E1BD6CFAA20A9F08091FB0280FDA9
:1019700011C0F70112828595859585950E94E8250D
:10198000C7010E940D048091FB0285958595859580
:101990000E94A62520E0D7014C9111965C911197E9
:1019A00012966C91129713967C91139714968C91C2
:1019B0000E94BB2264960FB6F894DEBF0FBECDBF67
:1019C000DF91CF911F910F91FF90EF90DF90CF901B
:1019D000BF90AF909F908F907F906F905F904F904F
:1019E0003F902F900895CF93DF93CDB7DEB76497E4
:1019F0000FB6F894DEBF0FBECDBF0E945C232C0152
:101A000090E080E80FB6F8948093610090936100B5
:101A10000FBE80E193E290935B0180935A010E9494
:101A2000B116ECE4F2E080E090E0918380830196CF
:101A3000359688309105C9F70E94DE1480916900BF
:101A4000886080936900E99A8BE48093D003809347
:101A500003048093DC038AE58093CF038093020420
:101A60008093DB03539A80E0815041F0A895EFE921
:101A7000FFE03197F1F700C00000F6CF539878945B
:101A800082E084BD93E095BD9AEF97BD80936E0090
:101A900086E90E944C1F82E30E944C1F85E30E944E
:101AA0004C1F84E30E944C1F83E30E944C1F109242
:101AB000760210928C021092770210928D0280E0D2
:101AC00090E00E94A4298A3E9E4F11F00E94F223CA
:101AD00082E090E00E949C29809387020E94E1238B
:101AE00090937502809374020E94631F8FE39CE9B8
:101AF0000197F1F700C000000E94631F80918C02E3
:101B000080FF17C06FEF83E290E00E94AA296FEF79
:101B100084E290E00E94AA296FEF85E290E00E94A3
:101B2000AA296FEF7FEF80E090E00E94C8290E9411
:101B3000122383E090E00E949C29682F70E080E0EF
:101B400090E00E941F2683E290E00E949C298A3741
:101B500081F484E290E00E949C298B3751F485E265
:101B600090E00E949C2991E0863409F090E0892F52
:101B700001C080E080FF26C583E091E09093790268
:101B8000809378029FEFE0E7F2E09150E040F04070
:101B9000E1F700C00000EE24E394FF24FA94F0E69D
:101BA0002F2E312C8E010F5F1F4FAAE07A2EB0E24C
:101BB0006B2E8091C203882381F01092C2030E9491
:101BC0005C232C01809194028823A1F0109294024E
:101BD0000E946F1A0E9460130DC0809194028111BF
:101BE00009C0C2010E944D23069720F0E0929402A2
:101BF0000E94912380919402882379F0E0929402CC
:101C00000E9491230E94631F80918C02811186C4DF
:101C100080918D02882369F281C40E94722780918D
:101C2000B603882309F457C18091CF0384FF53C1C1
:101C30000E94631F882359F08FB7F89440918E0259
:101C400050918F0260919002709191028FBFECE8E9
:101C5000F2E0A8E8B2E0C12CD12C3C2D21919D915D
:101C6000922721F180E0BB24B394492F4B21D1F07E
:101C70008B873C872B2181E009F480E08D870E94CF
:101C80005C238160782F9F878E874B855C856D856F
:101C90008F850E94B617F601E857FD4F8081B82660
:101CA000B0821AC08F5FBB0C8330F9F62FEFC21AD7
:101CB000D20A32E0C316D10481F6F88AF98A1A8A68
:101CC0000E945C238160782F9C8B8B8B488959897B
:101CD0006A898C890E94B61786E0E0E8F2E0D801B4
:101CE00001900D928A95E1F7A0908202B090830254
:101CF000C0908402D09085021092820210928302DA
:101D00001092840210928502A11003C0BB2009F436
:101D10005BC080917E0290917F020E944D23AC01B6
:101D200090917D02992339F02091100130E0241721
:101D3000350758F049C020910F018AE0289F900193
:101D400011242417350718F03FC09F3F19F09F5FFB
:101D500090937D02AA2061F00E94951E1A1414F43B
:101D600091E001C09FEF899F802D11248093820212
:101D7000BB2061F00E94951E1B1414F491E001C079
:101D80009FEF899F802D11248093830230918202DE
:101D90003323D1F0209183022223B1F045EB3403A9
:101DA000C0011124992319F09093820202C0E0929D
:101DB000820235EB2303C0011124992319F090937B
:101DC000830202C0E0928302C11003C0DD2009F447
:101DD0005BC080917B0290917C020E944D23AC01FC
:101DE00090917A02992339F020910E0130E0241766
:101DF000350758F049C020910D018AE0289F9001D5
:101E000011242417350718F03FC09F3F19F09F5F3A
:101E100090937A02CC2061F00E945C1E1C1414F492
:101E200091E001C09FEF899F802D1124809384024F
:101E3000DD2061F00E945C1E1D1414F491E001C0CD
:101E40009FEF899F802D1124809385023091840219
:101E50003323D1F0209185022223B1F045EB3403E6
:101E6000C0011124992319F09093840202C0E092DA
:101E7000840235EB2303C0011124992319F09093B8
:101E8000850202C0E09285028091820281110BC01E
:101E900080918302811107C080918402811103C067
:101EA0008091850281110E940717AB82BC82CD828E
:101EB000DE8286E0F801A0E8B2E001900D928A95FA
:101EC000E1F70E94601390918602891721F00E9429
:101ED0006013809386020E9428290E9472278091B5
:101EE000B603882309F465CE8091020484FF61CE95
:101EF0008091AC03803209F05CCEC0909202D09009
:101F0000930280918C03C114D10469F08E3F09F0D3
:101F1000DBC280918D03833008F46CC1855083301F
:101F200008F0D2C267C1893009F4CCC220F58430F0
:101F300009F47FC058F48230F1F108F066C08130B6
:101F400009F0C0C210928D0389E0E0C1863009F427
:101F50007BC008F0B7C220919003309191033227E3
:101F60002327322740918F0360918E0380918D0348
:101F70000E949B15A9C2803109F4D2C080F48D3033
:101F800009F465C028F48C3009F09CC280E13DC2A0
:101F90008E3009F461C08F3009F48EC093C2823153
:101FA00009F4C3C008F4BFC0833109F4ECC08E3F0C
:101FB00009F420C187C280918D03823009F4F5C2F3
:101FC000833099F0813009F07DC22FB7F894809169
:101FD0008E0290918F02A0919002B09191022FBF3A
:101FE000B0938E03A0938F032CC080911101909128
:101FF0001201892B09F468C280918C0280938E03B0
:1020000080918D0280938F035FC280918D03823017
:1020100009F058C260918E0370918F0380919003F4
:10202000909191030E94142A86E290E00E94AA29CE
:102030004BC240918F0360918E0380918D030E946B
:10204000671690939003BBC20E94D1153DC282E0F7
:1020500080938D0387EB5AC1C0908D03D0908E037F
:10206000DC24CD24DC2480908F03912C4DE1841658
:10207000910408F029C2ECE8AE2EE3E0BE2EC601C2
:10208000875B9E4F95012C5833402815390508F081
:102090001BC2E7EBCE16E2E0DE0628F40E949C2984
:1020A000F501848302C0F5011482FFEFCF1ADF0A25
:1020B0002FEFA21AB20AE3CF809111019091120181
:1020C000892B09F401C2C0908D03D0908E03DC24CB
:1020D000CD24DC24A0908F03B12C3DE1A316B104E4
:1020E00008F0F2C17CE8872E73E0972EC601875B6B
:1020F0009E4F94012C5833402A153B0508F0E4C14B
:1021000047EBC41642E0D40620F4F40164810E9437
:10211000AA29FFEFCF1ADF0A2FEF821A920AE6CF21
:102120000E946115D1C188E070C1C0908D03D0902C
:102130008E03DC24CD24DC2480908F03912C3DE1A0
:102140008316910408F0C0C16CE8A62E63E0B62E99
:10215000C601879695012C5833402815390508F09B
:10216000B3C140E6C416D10428F40E949C29F501AD
:10217000848302C0F5011482FFEFCF1ADF0A2FEF2C
:10218000A21AB20AE5CFC0908D03D0908E03DC2452
:10219000CD24DC24A0908F03B12C3DE1A316B10423
:1021A00008F092C140E6C416D10408F08DC1C10107
:1021B0008C199D098A159B0508F486C15CE8852E5B
:1021C00053E0952EC601879694012C5833402A156A
:1021D0003B0508F079C1E0E6CE16D10420F4F40105
:1021E00064810E94AA29FFEFCF1ADF0A2FEF821A1B
:1021F000920AE8CFE0918D038E2F90E08E3091050A
:1022000008F062C1FC01E05CFF4F0C940E2A88E0EC
:10221000EBE1F1E0D80101900D928A95E1F7ECE84D
:10222000F3E0262D11922A95E9F784E080938C0340
:1022300088E0F801A0E9B3E0FBC030ED30938C03F7
:1022400010928D0310928E0310928F033DC18091E6
:102250008F0390E0982F882720918E03820F911D85
:10226000092E000CAA0BBB0B45E0880F991FAA1F73
:10227000BB1F4A95D1F7AC01BD01405E5F4F6F4F68
:102280007F4F481759076A077B0708F41DC1803D37
:102290009105A105B10508F017C1413D5105610542
:1022A000710520F040ED50E060E070E0481B590BF4
:1022B000BC01605B7E4F8CE893E00E94832904C1DF
:1022C00040E250E06FEF70E08CE893E00E94242A37
:1022D0008091110180938C03C0928D03F5C081E041
:1022E00090E09093930280939202E2E3F0E0F09307
:1022F0008B02E0938A020E945C23E6C08091110168
:1023000080938C03C0928D0380918A0280938E0308
:10231000DBC0C0908E03D0908F0340E250E06FEF9F
:1023200070E08CE893E00E94242A28EB30E080E003
:1023300090E0AC014E5F5F4F4132510508F0C4C0E0
:10234000F90165917491C616D70630F4FC01E45783
:10235000FC4F71836083CA01285F3F4FF1E0203555
:102360003F0739F7B1C020918E0330918F0388EB7E
:1023700090E0FC01459154912417350709F4E8C019
:10238000089641E080359407A1F798C080918E03AC
:1023900090918F0328EBC22E20E0D22EF6012591DA
:1023A00034918217930709F480C0E8E0CE0ED11C67
:1023B00020E531E02C153D0589F780C00E942015ED
:1023C00083C080918E038230C1F180F48823A1F014
:1023D000813009F079C080918F03F801272D119287
:1023E0002A95E9F7B8010E9486151CC0833081F058
:1023F000843009F441C068C0ECE8F3E0262D119266
:102400002A95E9F788E080938C0380938D035CC064
:1024100080918F03F801272D11922A95E9F7B801D1
:102420000E94711580938C03F801ADE8B3E0872D0D
:1024300001900D928A95E1F747C060918F038AE081
:10244000E0E9F3E0D80101900D928A95E1F7683058
:1024500068F43AE0639FB001112467557F4F4AE06A
:1024600050E0C8010E94CE2980E001C08FEF809328
:102470008C030E94B11628C060918F038AE0E0E9C6
:10248000F3E0D80101900D928A95E1F76830B0F43D
:102490003AE0639FB001112467507F4F4AE050E05B
:1024A000C8010E94CE2980E00AC0C6010296FC0144
:1024B000259134912D31310508F460C08FEF809360
:1024C0008C0302C0F0928C038CE8C82E83E0D82ED7
:1024D0008091DB0384FD03C00E947227F9CF4BED8E
:1024E00053E068E0C6010E94C92848E0C40ED11C30
:1024F0008CEAC81683E0D80659F78091DB0384FD87
:1025000003C00E947227F9CF4BED53E060E080E0FA
:1025100090E00E94C9281092AC034BCBF8942AB1EA
:102520005B9A822F8C608AB99BB18CE098279BB90B
:102530009FE7E8E3F1E09150E040F040E1F700C0B0
:1025400000009BB189278BB92AB95B98789431CB6D
:102550009C012E5F3F4FF901459154914032510546
:1025600008F0ACCFF90145915491FC013496659186
:1025700074918DE893E00E941B2A95CFFC01459150
:102580005491F60134968591949160E973E00E942C
:102590001B2A0E940415F6013696859194910097A6
:1025A00009F481CFFC0109957ECF86E290E00E947C
:1025B0009C2910928E0310928F03109290038093A7
:1025C000910382CF60E086E290E00E94AA290E94F7
:1025D000D1150E9461156AE783E290E00E94AA2962
:1025E0006BE784E290E00E94AA2966E485E290E02D
:1025F0000E94AA29C1CAEAE2F2E0848195812AE018
:1026000030E0B9010E94E62960930F018681809332
:10261000100182858093160184858093150186853B
:102620009785B9010E94E62960930D018089809306
:102630000E01828980931401848980931301089587
:1026400080912A0290912B02909318018093170198
:102650000895009741F0EFE9FFE03197F1F700C0EE
:1026600000000197F6CF08952091AD023091AE029F
:102670002817390771F09093AE028093AD02E09174
:102680007802F0917902309721F00084F185E02DF5
:10269000099408952091AB023091AC0228173907B4
:1026A00071F09093AC028093AB02E0917802F091CC
:1026B0007902309721F00680F781E02D0994089582
:1026C000E0917802F0917902309721F00190F08149
:1026D000E02D099480E00895FF920F931F93CF930C
:1026E000DF938C01EB01F42E8091020182FF3CC04C
:1026F0008B7F8093020180912402909125029B019F
:10270000281B390B80911701909118012817390760
:1027100050F4809122020E94DA1A809102018D7F8A
:102720008093020116C08091FE0282608093FE02B7
:10273000809122020E94DA1A8091020182608093C5
:1027400002018091450285FF04C086FD02C0F110A0
:102750001EC080914802909149020E9429138091E5
:1027600022020E947A1A0AC0802F0E947A1A80914F
:102770002202909123020817190719F482E00E949F
:1027800068240E94B124D0932502C0932402DF91D3
:10279000CF911F910F91FF900895CF93DF93EC019C
:1027A00081E0898B9091FD028F81892B8093FD02BE
:1027B0009091FE028885892B8093FE020E94B124AD
:1027C000EA81FB81CE010696309729F06C897D89DC
:1027D000DF91CF910994DF91CF910895EF92FF920D
:1027E0000F931F93CF93DF93FC012285211136C0F5
:1027F000EC01E380F480F7E5FF1A26E12E9DC0018D
:102800002F9D900D1124DC01A25ABE4F1496ED911C
:10281000FC9115978C599E4F309729F054966D91E5
:102820007C915597099586E18E9D80018F9D100DB5
:102830001124025A1E4FF80187810E946F24F8016B
:1028400080850E9468240E94B124188219861B8604
:102850001E821D8210925D0110925C01DF91CF916A
:102860001F910F91FF90EF900895ECE4F2E080E06B
:1028700090E08830910531F0248127FF1482019681
:102880003596F7CF90932102809320020895CF933D
:1028900090911C029923C9F0882311F0C0E003C075
:1028A00010921C0212C080911C02C817C8F7EC2FAE
:1028B000F0E0EE0FFF1FE25FFD4F808191810E94EB
:1028C000FA220E94B124CF5FEECFCF9108950F93EB
:1028D0001F93CF93DF93C42FD22FFC0182818823D3
:1028E000C9F0409326020E945C239093AA02809331
:1028F000A90280E28C0F883008F05BC0C77081E0CD
:1029000001C0880FCA95EAF7DF91CF911F910F910F
:102910000C94111A80912602481334C08091A902A8
:102920009091AA020E944D232091420230914302CD
:102930008217930738F510E21D0FCD17B9F080E22A
:102940008C0F883040F4C77081E001C0880FCA95B1
:10295000EAF70E94221A183028F581E09D2F97701F
:1029600001C0880F9A95EAF70E94111A802F0E94E1
:102970007E1B1830F0F4D77081E001C0880FDA9523
:10298000EAF70AC080E28C0F883098F4C77081E0C3
:1029900001C0880FCA95EAF7DF91CF911F910F917F
:1029A0000C94221A802FDF91CF911F910F910C94DC
:1029B0007E1BDF91CF911F910F9108950F931F936D
:1029C000CF93DF930AE212E0C7E8D0E0CE010E9485
:1029D0009C29F80181938F012196C93AD105B1F75D
:1029E000C0E0D0E0FE01E254FF4F85919491009742
:1029F00011F0FC0109952896C839D10599F7DF91A6
:102A0000CF911F910F9108950F931F93CF93DF9351
:102A10000AE212E0C7E8D0E0CE010E949C29F8014A
:102A200061918F01681719F0CE010E94AA292196A1
:102A3000C93AD10589F7DF91CF911F910F91089580
:102A4000EAE2F2E0128E138E8FEA90E091838083A7
:102A500085E0848F88E893E1938382832CE231E0E0
:102A60003583248382E390E09783868385E090E03A
:102A7000918780878AE090E09387828744E150E0E5
:102A8000558744873787268724E630E0318B208BB3
:102A900028E030E0338B228B28E230E0358B248B2A
:102AA00028EC30E0378B268B318F208F158E978F57
:102AB000868F80E590E091A380A30E9404150C947A
:102AC000DE14CF93DF93C9E4D1E060E0CE010E9431
:102AD000AA292196C11584E0D807B9F7DF91CF91D3
:102AE0000895883080F49B01982F8AE0989FB00168
:102AF000112467507F4F4AE050E0C9010E948C29A1
:102B000080E090E008958FEF9FEF0895883080F483
:102B10009B01982F8AE0989FB001112467557F4F41
:102B20004AE050E0C9010E948C2980E090E00895BD
:102B30008FEF9FEF08950F931F93CF93DF9388300C
:102B400058F5623048F5433038F521159CE53907D2
:102B500031F4E0911101F0911201EF2BE9F08901BC
:102B6000C42FD0E0CC0FDD1F96E0699FC00DD11DB2
:102B700011249CE0899FC00DD11D1124612FCE012D
:102B800087960E94AA29602FCE018896DF91CF9167
:102B90001F910F910C94AA29DF91CF911F910F9152
:102BA00008956F927F928F929F92AF92BF92CF9231
:102BB000DF92EF92FF920F931F93CF93DF93CDB7E6
:102BC000DEB764970FB6F894DEBF0FBECDBFA090FE
:102BD0001101B090120181E090E090931201809376
:102BE0001101612CC12CD12C712CE12CF12C00E0B5
:102BF00010E046018E0C9F1CF801EE0FFF1FE80D40
:102C0000F91DE05EFD4F25913491402F672D862DF3
:102C10000E949B150F5F1F4F0330110569F786E077
:102C2000E80EF11C7394E2E07E12E1CFFCE0CF0EDF
:102C3000D11C639488E06812D7CF0E9420151A82B5
:102C400019821C821B821E821D8218861F8288ECBC
:102C500090E09A87898709EA10E04AE050E0B801DD
:102C6000CE0101960E94CE29065F1F4F093F110534
:102C7000A1F77E01EBE0EE0EF11C8AE0F701119264
:102C80008A95E9F74AE050E0B801C7010E94CE29D1
:102C9000065F1F4F0934F1E01F07A1F7B092120140
:102CA000A092110164960FB6F894DEBF0FBECDBF9F
:102CB000DF91CF911F910F91FF90EF90DF90CF9018
:102CC000BF90AF909F908F907F906F9008950F93DB
:102CD0001F93CF93DF93883008F56230F8F44330C8
:102CE000E8F4C42FD0E0CC0FDD1F26E0629FC00DBA
:102CF000D11D11243CE0839FC00DD11D1124CE01B4
:102D000087960E949C2990E0182F0027CE01889674
:102D10000E949C299801282BC90102C080E090E004
:102D2000DF91CF911F910F910895462F209192022C
:102D300030919302232B91F47E3F39F46E3F71F46E
:102D40008091A7029091A8020895883038F47230DB
:102D500028F4633018F4672F0C94671680E090E035
:102D600008958F929F92AF92BF92CF92DF92EF928F
:102D7000FF920F931F93CF93DF93CDB7DEB72A97C0
:102D80000FB6F894DEBF0FBECDBF0EE511E0E12C0B
:102D9000F12C8CE5C82E89E1D82E97E8A92E99E16F
:102DA000B92E22EC822E28E1922EF801D182C08227
:102DB000B382A28295828482F58AE48ABE016F5F23
:102DC0007F4F8E2D0E948615892B29F489859A853F
:102DD000F801938B828BFFEFEF1AFF0A0A5E1F4FF9
:102DE00088E0E816F10409F72A960FB6F894DEBFDA
:102DF0000FBECDBFDF91CF911F910F91FF90EF904C
:102E0000DF90CF90BF90AF909F908F9008950E94D9
:102E10005C2320918202211104C02091830222238D
:102E200021F090937F0280937E02209184022111F1
:102E300004C020918502222321F090937C0280938C
:102E40007B02E0917802F0917902309749F082E0BC
:102E5000809380020480F581E02D80E892E009945F
:102E60000895803F39F48091830287FF6AC01092F1
:102E7000830267C0813F29F4809183021816BCF356
:102E800060C090918202823F29F497FF5AC010924D
:102E9000820257C0833F19F41916CCF352C09091A7
:102EA0008402893F31F419160CF04BC01092840251
:102EB00048C08A3F19F497FF44C0F8CF8B3F39F4DC
:102EC0008091850287FF3DC0109285023AC08C3FF9
:102ED00029F4809185021816BCF333C0843F21F495
:102EE000809181028E7F17C0853F21F480918102FD
:102EF0008D7F11C0863F21F4809181028B7F0BC0B2
:102F0000873F21F480918102877F05C0883F31F49B
:102F1000809181028F7E8093810213C08D3F21F4C6
:102F20008091AF028E7F0BC08E3F21F48091AF0263
:102F30008D7F05C08F3F29F48091AF028B7F8093F6
:102F4000AF0280918202811106C0809183028111BB
:102F500002C010927D0280918402811106C080918E
:102F60008502811102C010927A020895CF92DF92F9
:102F7000FF920F931F93CF93DF93CDB7DEB7679781
:102F80000FB6F894DEBF0FBECDBFF42E4B8B052FCE
:102F90005C8B162F6D8B7E8B8F8BCE88DF88A60186
:102FA000602F8F2D0E944926811109C0809128022F
:102FB0009091290201969093290280932802111181
:102FC0001092FE02FE013D9686E0DF011D928A9579
:102FD000E9F780912C0290912D02892B11F10E942A
:102FE0005C232091F9023091FA02821B930B20910D
:102FF0002C0230912D028217930740F08091FB0242
:1030000082FB992790F981E0892701C080E080FF49
:1030100003C082E00E94CB250E94972481110E9468
:103020005D24FD860E871F87D98AC88A86E0FE0147
:103030003D96DE01179601900D928A95E1F7CE013B
:1030400007960E94A01B811146C086E0FE013796BC
:10305000DE01119601900D928A95E1F7DF80F884E8
:103060000A851B85A8016F2D8D2D0E94492681118F
:1030700032C02091C10230E0C901019687709927C2
:103080004091F20250E084179507B9F0D982FA8294
:103090001D830C8396E0929FD001939FB00D112465
:1030A000AE53BD4FFE01319601900D929A95E1F716
:1030B0008093C1020E9458260EC00E946F1A10927F
:1030C000C1021092F202EBEBF2E086E0DF011D920A
:1030D0008A95E9F719C016E08091F2029091C10239
:1030E000891791F0189FC00111248E539D4F0E94A3
:1030F000A01B882349F08091F20290E0019687702E
:1031000099278093F202E8CF67960FB6F894DEBF56
:103110000FBECDBFDF91CF911F910F91FF90DF9038
:10312000CF900895CF93DF9300D000D01F92CDB7FA
:10313000DEB79093A8028093A702811520E2920740
:1031400048F40F900F900F900F900F90DF91CF9158
:103150000C94E4228EEF89838A831B820E945C2375
:103160008160782F9D838C8349815A816B818D8109
:103170000E94B6170F900F900F900F900F90DF9155
:10318000CF9108950F931F93CF93DF938C01EB01A1
:103190006DE972E08C2F0E948615892B09F046C0DC
:1031A00080914802909149020E942913DD27CB5655
:1031B000DD4F8881F80110821882833079F048F45D
:1031C000813041F1823091F580919F029091A0026F
:1031D00009C0843051F08530E9F028C08091A10207
:1031E0009091A2020097B1F01BC08091A302909130
:1031F000A4020097A9F420919D0230919E02809133
:103200009F029091A0022115310541F0009741F4F1
:10321000C90106C080919D0290919E02009731F0F5
:10322000DF91CF911F910F910C949218DF91CF9164
:103230001F910F910895CF93DF9300D000D01F927C
:10324000CDB7DEB79093A8028093A702811520E244
:10325000920748F40F900F900F900F900F90DF910E
:10326000CF910C94FA228EEF89838A8381E08B833D
:103270000E945C238160782F9D838C8349815A81D1
:103280006B818D810E94B6170F900F900F900F9059
:103290000F90DF91CF910895CF93DF93EC010E94BF
:1032A0001B1980914802909149020E942913CE0176
:1032B000DF91CF910C9492180F931F93CF93DF93CC
:1032C0008C01862F6DE972E00E948615892BD1F45E
:1032D000C0919D02D0919E022097A1F0F8018081BB
:1032E000833039F4CE010E944C19CE010E944C1952
:1032F00002C0843038F0CE01DF91CF911F910F9141
:103300000C944C19DF91CF911F910F9108950F9359
:103310001F93CF93DF938C01EB016DE972E08C2F4B
:103320000E948615892B09F06DC0DD27F801808188
:10333000813041F49185911115C09285992391F0C6
:1033400082E010C0823049F4F8018185811107C004
:103350008285811106C083E005C086E003C085E058
:1033600001C084E0CB56DD4F88838330B1F028F470
:10337000813071F0823031F045C08430A9F0853061
:1033800079F140C080919F029091A0020097A1F531
:1033900080919D0290919E0220C08091A102909107
:1033A000A2020097E9F028C08091A3029091A402A4
:1033B000009711F580919D0290919E02009749F02F
:1033C0000E944C1980919F029091A002009781F079
:1033D00013C080919F029091A002009799F00CC0B9
:1033E00080919D0290919E02009761F00E944C197D
:1033F00080919D0290919E02DF91CF911F910F913C
:103400000C941B19DF91CF911F910F910895882380
:1034100039F09091FE02892B8093FE020C94B12426
:103420000895882339F09091FD02892B8093FD0245
:103430000C94B1240895882321F00E9468240C94F0
:10344000B1240895882321F00E946F240C94B124A4
:103450000895E92FE295EF704E2F50E0FA01329770
:10346000EE30F105B0F4E25BFF4F0C940E2A803F82
:1034700091F018F4883E68F40EC0843F51F40BC0FC
:10348000883E48F0813F29F406C093FB882780F9E5
:10349000089580E0089581E008950E9434250E94F7
:1034A000291A089580E090E00E944A1380E090E09D
:1034B0000E9434131092FE021092FC020E94B1246A
:1034C000E0E8F2E086E0DF011D928A95E9F71092CC
:1034D0007D0210927A021092AF020C94071710929C
:1034E000FD0286E0E5EBF2E0DF011D928A95E9F747
:1034F0000C94521A882309F45CC0823869F40E9443
:10350000601381FF56C069E383EB92E00E94C723FA
:103510000E94B12469E30EC0833891F40E946013C5
:1035200080FF47C063E583EB92E00E94C7230E94BF
:10353000B12463E583EB92E00E94BA230C94B1249A
:10354000843869F40E94601382FF33C067E483EB20
:1035500092E00E94C7230E94B12467E4EBCF9CEF66
:10356000980F913A10F4682FE5CF90E2980F9830B9
:1035700050F4877091E001C0990F8A95EAF7892F7E
:103580000E946F24DBCF9BE5980F933020F480E0FE
:1035900090E00C944A1398E5980F973120F480E05E
:1035A00090E00C943413803F20F00E9431170C946B
:1035B00007170895CF93882309F49EC0C82F823837
:1035C000B1F40E94601381FD97C069E383EB92E040
:1035D0000E94C7230E94B1242FEF81EE94E0215076
:1035E00080409040E1F700C0000069E317C08338D5
:1035F000E1F40E94601380FD7FC063E583EB92E0FD
:103600000E94C7230E94B1242FEF81EE94E0215045
:1036100080409040E1F700C0000063E583EB92E05A
:103620000E94BA23CF910C94B1248438B1F40E9443
:10363000601382FD61C067E483EB92E00E94C723C0
:103640000E94B1242FEF81EE94E021508040904001
:10365000E1F700C0000067E4E1CF8CEF8C0F813A06
:1036600080F4E5EBF2E08BEB92E02191C217E1F1FF
:103670008E179F07D1F76C2F83EB92E00E94C72330
:10368000D1CF80E28C0F883068F4C77081E090E081
:1036900001C0880FCA95EAF79091FD02892B8093AB
:1036A000FD02C0CFEBE5EC0FE33040F4F0E0E85D65
:1036B000FE4F808190E0CF910C944A13E8E5EC0F27
:1036C000E73150F4F0E0EE0FFF1FE55DFE4F808123
:1036D0009181CF910C943413C03F70F08C2F0E94D5
:1036E000E41ECF910C9407176C2F83EB92E00E949D
:1036F000BA230E94B124BFCFCF9108951F93CF93D7
:10370000DF93182F893329F4C0914A02D0914B02DC
:1037100004C0C0914802D0914902812F0E94DA1A58
:10372000209741F08FE99FE00197F1F700C000007A
:103730002197F6CF812FDF91CF911F910C947A1AA8
:103740004F925F926F927F928F929F92AF92BF92B1
:10375000CF92DF92EF92FF920F931F93CF93DF935D
:10376000CDB7DEB761970FB6F894DEBF0FBECDBF01
:103770008C0185E0F801DE011D9601900D928A957D
:10378000E1F7D801EC901196FC90119712966C908D
:103790008BEBA82E82E0B82E8090BE029090BF02E4
:1037A000A4016091BC028091BB020E944926782E40
:1037B0008111DBC1F801C380D4804090BD02C601F5
:1037C000881999094C0120E04091BB025091BC023C
:1037D000442009F457C1642D7091BE028091BF024C
:1037E0000E94BB2280914202909143025090C002FD
:1037F0008816990608F013C14091BE025091BF028D
:10380000B090BB02A090BC02852D807F6A2D09F08C
:10381000A5C08B2D0E944926811115C0AF1013C081
:10382000BE1011C061100FC0852D8F708061809314
:10383000C0028BEB92E00E940D048091C002D8017F
:1038400015968C93B1C120E04091BB025091BC020F
:103850006091BD027091BE028091BF020E94BB22A6
:103860008091420290914302843F914050F0A60122
:103870006F2D8E2D0E944926811115C081E086256D
:1038800014C020E04091BB025091BC026091BD0287
:103890007091BE028091BF020E94BB2280914702BC
:1038A00080FDE5CF17C080E090E080FF13C0462D7B
:1038B0006F2D8E2D0E942926882361F08BEB92E0DC
:1038C0000E940D04EBEBF2E086E0DF011D928A9589
:1038D000E9F76AC1A6016F2D8E2D0E94492681113C
:1038E00003C081E0862502C080E090E0B82FB1706F
:1038F000CB2E80FF2AC0462D6F2D8E2D0E942926AB
:10390000D82E811122C0ED86FE868D859E850E946F
:103910003425292F22952F70223018F0243078F486
:1039200005C09F7049F0811107C00DC09F7021F044
:10393000F8019581907F39F0805E883020F0C801D1
:103940000E940D04DC2C7D2C2FC1662009F42BC1B4
:103950008091C00281608093C00226C18B2D0E949D
:103960004926811115C0AF1013C0BE1011C06110DF
:103970000FC0D80115965C92C8010E940D0486E024
:10398000F801ABEBB2E001900D928A95E1F760C0CF
:10399000ED86FE868D859E850E944D1A8823C9F18D
:1039A0006620B9F12091C002822F82958F7090E03D
:1039B000029774F08091BB029091BC0298878F832C
:1039C0001986DB86CA862C87CE0107960E940D04D5
:1039D00086E0F801ABEBB2E001900D928A95E1F739
:1039E0000E94622619C09090BB028090BC02409158
:1039F000BE025091BF02682D892D0E94492688235E
:103A0000B1F0ED86FE868D859E850E944D1A81114E
:103A100021C0C8010E940D0477247394C5C0852D70
:103A2000807F09F78BEB92E00E940D0498C08F1005
:103A3000E8CF9E10E6CF6110E4CFD80115965C92D6
:103A4000C8010E940D0486E0F50111928A95E9F7FC
:103A5000742CAAC06620E9F22091C002822F8295C0
:103A60008F7090E002970CF4B3CF8091BB029091DD
:103A7000BC029A8389831B82DD82CC822E83CE0195
:103A80000196A4CF60E07091BE028091BF020E94B7
:103A9000BB2280914202909143028816990608F059
:103AA0005EC0762C662009F4B4CFC090BB02D090E3
:103AB000BC024091BE025091BF026D2D8C2D0E9420
:103AC000492681113BC0DF1039C0CE1037C020E03D
:103AD000A6016091BD027091BE028091BF020E945A
:103AE000BB228091470282FD20C08091C00280FDF0
:103AF0001CC082958F70482F50E041155105A9F0E8
:103B00002091C002D80115962C9315974F3051057E
:103B100049F08F5F982F9295907F822F8F70892B1D
:103B200015968C93C8010E940D0486E0F801ABEB5A
:103B3000B2E001900D928A95E1F736C0ED86FE86DF
:103B40008D859E850E944D1A811142CF8091C002C1
:103B500081608093C002C8010E940D0425C086E0E8
:103B6000F50111928A95E9F71FC0662009F451CF3B
:103B7000ED86FE868D859E850E944D1A782E8823BF
:103B800009F447CF86E0F801ABEBB2E001900D926B
:103B90008A95E1F78091BB029091BC020E94342586
:103BA0000E94622601C0712C872D61960FB6F89491
:103BB000DEBF0FBECDBFDF91CF911F910F91FF9060
:103BC000EF90DF90CF90BF90AF909F908F907F90BD
:103BD0006F905F904F9008959091740292FF0DC086
:103BE000282F2871283019F4877F846006C0282F79
:103BF0002471243011F48B7F886093FF0DC0282F2F
:103C00002871283119F4877E846106C0282F247119
:103C1000243111F48B7E88612091750220FF0DC044
:103C2000382F3871383019F4877F816006C0382FFB
:103C30003171313011F48E7F886021FF0DC0282F43
:103C40002871283119F4877E816106C0282F2171DF
:103C5000213111F48E7E886194FD877E08959C0148
:103C60003A9521153F4138F5DC01AA27B270AC0125
:103C7000442754709C012227387094FF0FC090FF96
:103C800002C080E101C080E0AB2B09F08062452BCF
:103C900009F08064232B69F080680BC0892F817044
:103CA000AB2B09F08260452B09F08460232B09F0CF
:103CB0008860FB01099408958091AF0280FF08C0DD
:103CC0006091140170E0759567957595679521C0B1
:103CD00081FF06C06091140170E07595679519C069
:103CE00082FF04C06091140170E010C090917A02CC
:103CF000992399F0609113019617A0F78091140110
:103D0000899FC001112470E00E94FA296038710572
:103D100040F46115710519F406C061E070E0862F6A
:103D200008958FE7089581E008958091AF02209172
:103D300032023091330280FF0CC080911601829FC5
:103D4000B001839F700D11247695679576956795E0
:103D50002FC081FF0AC080911601829FB001839F0E
:103D6000700D11247695679523C082FF08C080915D
:103D70001601829FB001839F700D112419C04091DC
:103D80007D02411102C0B90113C0609115014617AF
:103D900070F780911601849FA0011124429FC001F9
:103DA000439F900D529F900D112470E00E94E629D0
:103DB0006038710528F46115710521F0862F08958A
:103DC0008FE7089581E00895803F21F40E94951EB9
:103DD000819504C0813F29F40E94951E809383023F
:103DE0000895823F21F40E94951E819504C0833F6F
:103DF00029F40E94951E809382020895893F19F448
:103E00000E945C1E05C08A3F31F40E945C1E8195B1
:103E10008093840208958B3F21F40E945C1E81955B
:103E200004C08C3F29F40E945C1E80938502089593
:103E3000843F21F480918102816017C0853F21F485
:103E400080918102826011C0863F21F480918102BD
:103E500084600BC0873F21F480918102886005C097
:103E6000883F31F4809181028061809381020895BE
:103E70008D3F21F48091AF0281600BC08E3F21F411
:103E80008091AF02826005C08F3F29F48091AF021C
:103E900084608093AF020895F894E82FE295EF7064
:103EA000F0E031A1282F2F7081E090E001C0880F51
:103EB0002A95EAF7982F9095932391A392A1892BA5
:103EC00082A378940895AF92BF92CF92DF92EF923F
:103ED000FF920F931F93CF93DF93C3E2D1E096E756
:103EE000C92E92E0D92E25E2E22E21E0F22EB12C4D
:103EF00001E010E0BE018881F894E82FE295EF70B0
:103F0000F0E021A18F70A80102C0440F551F8A95CF
:103F1000E2F7CA01922F982B91A392A18095892351
:103F200082A3789400C0E5E2F1E020E030E0A12C2B
:103F30004191842F82958F7090E0DC0190968C9156
:103F400090E04F7002C0959587954A95E2F780FD05
:103F500007C0802F022E01C0880F0A94EAF701C023
:103F600080E0A82A2F5F3F4F2330310509F72196C3
:103F7000FB0180810E944C1FF0EAFA95F1F7D6010F
:103F80008C91A81619F0AC9281E001C080E0B82AAB
:103F9000BFEFCB1ADB0AEC16FD0609F0ABCFBB2056
:103FA00049F081E08093B2020E945C239093B102B9
:103FB0008093B0028091B202882391F08091B00288
:103FC0009091B1020E944D23069750F080917602A5
:103FD00080938C028091770280938D021092B202BE
:103FE000809100018F3F49F1F12C86E1E82E1BC042
:103FF000E09EF001E19EF00D1124E25AFE4FC288CE
:10400000D388C114D10421F4C0904202D09043025D
:10401000E09EE001E19ED00D1124C25ADE4F8E8158
:10402000811110C0F3940F2D10E080910001082E33
:10403000000C990B80179107DCF68091010181112A
:1040400018C02BC08D859E850E944D23C816D906A9
:1040500048F78989811103C0CE010E94CD13E09EEB
:10406000C001E19E900D11248C599E4F0E94EE13C9
:10407000D9CF80911D0290911E02009771F00E948D
:104080004D2320914002309141022817390728F42E
:1040900081E00E9447140E9435148091450280FF00
:1040A0001CC08091020182FF18C00E945C232091F5
:1040B000240230912502AC01421B530B20911701C1
:1040C000309118014217530740F041E0BC01809144
:1040D0002202909123020E946C138B2DDF91CF91CD
:1040E0001F910F91FF90EF90DF90CF90BF90AF9016
:1040F0000895CF93DF930E949516EC0182389105C5
:1041000059F1A0F48133910509F473C040F4893268
:10411000910509F467C08A9709F472C084C0853399
:10412000910509F458C0C997B9F07DC0833E910547
:1041300071F138F4803E9105B1F0823E910511F1A4
:1041400072C0863E9105B9F1873E9105C9F1843E62
:10415000910509F068C024C08091740280FD5DC0A3
:1041600081FD5BC060C08091740280FD50C0809171
:10417000750280FF49C18091740284FD43C1C3EE82
:10418000D0E042C18091740282FF3EC1F4CF8091A1
:10419000740282FD3FC08091750280FD3EC0EBCF6E
:1041A0008091750281FF30C18091740284FD2AC123
:1041B000C7EED0E029C18091740283FF25C1F4CFFE
:1041C0008091740283FD2CC08091750281FFECCF39
:1041D000C4EED0E019C18091740285FF15C1C9E217
:1041E000D0E012C18091740285FF0EC1C5E3D0E01A
:1041F0000BC18091740286FF07C1CAE2D0E004C1FE
:104200008091740286FF00C1C1E3D0E0FDC0C9E324
:10421000D0E0FAC0C2EED0E0F7C0C0EED0E0F4C00B
:10422000C6EED0E0F1C0C11581E5D80708F066C040
:10423000C11520E5D207E0F0CE0174E09695879590
:104240007A95E1F783709C2F937021E030E002C0F3
:10425000220F331F9A95E2F73C68382BCF70C69532
:10426000C69540E2C49FE0011124C22BD32BCCC0E1
:10427000C83ED10560F5C03ED10508F0C5C0C83ABA
:10428000D105B0F4C53AD10540F0C55AD0E0C85DBB
:10429000DE4FC881D0E0D064B7C0C130D10509F489
:1042A000B3C008F4AFC0C430D10508F4ABC0ACC093
:1042B000CF3BD10508F0A6C0C85AD0E0CC0FDD1F17
:1042C000C55DDE4F0990D881C02DD4649DC0C11555
:1042D00040E2D40758F4C11581E0D80708F094C033
:1042E000C03FD10508F48EC0D0658EC0C11520E452
:1042F000D20708F487C0DF70D06A86C0C11545E5D3
:10430000D40708F042C0C11584E5D80728F0DC2F97
:10431000CC27C46FD06A78C0C11523E5D207B0F0AE
:10432000CE018370992721E030E002C0220F331FB5
:104330008A95E2F78C2F8695869540E2849FC0018E
:104340001124E901C82BD92BDA685EC0C11542E5FA
:10435000D40728F4DC2FCC27C16FD06A55C0CE011A
:104360008370992721E030E002C0220F331F8A9525
:10437000E2F78C2F8695869540E2849FC001112438
:10438000E901C82BD92BDC683FC0C11589E5D807E6
:10439000B8F4C11528E5D20728F0DC2FCC27C06F70
:1043A000D06A32C0C11546E5D40760F58C2F0E9453
:1043B000EC1D8F71C82FD0E0DC2FCC27D06224C039
:1043C000C1158AE5D80780F48C2F8F700E94EC1DF0
:1043D00094E0D695C7959A95E1F7CF70D0E0DC2FA1
:1043E000CC27D069C82B10C0CE01905681159042C1
:1043F00048F48D2F8F710E94EC1DDD27D0628F71E4
:10440000D82B02C0C0E0D0E0CE01DF91CF9108955B
:10441000AF92BF92CF92DF92EF92FF920F931F93D2
:10442000CF93DF93EC018AE0A82E2881222309F4A0
:1044300097C0213009F041C08981813039F48E0163
:104440000E5F1F4F8A810E947E1B08C0823041F49C
:104450008E010E5F1F4F8A810E94DA1AE8017EC02A
:10446000833039F48E010E5F1F4F8A810E947A1AC1
:10447000F5CF843011F0219671C02A81229680E018
:1044800090E030E0205331092A30310558F4A89EDD
:10449000A001A99E500D1124C901840F951F2196DA
:1044A0002881EFCF009709F459C0EFE9FFE0319779
:1044B000F1F700C000000197F5CFE22FF0E0E055E2
:1044C000FD4FB490822F86958695869590E0FC01ED
:1044D000E056FD4FE4902770F12C022E02C0F594B7
:1044E000E7940A94E2F7F1E0EF22FF24FC01E057A1
:1044F000FD4FC490D12C022E02C0D594C7940A94CB
:10450000E2F731E0C322DD24FC01E058FD4F0491C5
:1045100010E002C0159507952A95E2F70170112762
:10452000E114F10419F081EE0E94DA1AC114D104E9
:1045300019F086EE0E94DA1A8B2D0E947E1BCD2880
:1045400019F086EE0E947A1AEF2819F081EE0E9487
:104550007A1A012B19F08CE20E947E1B219665CFFE
:10456000DF91CF911F910F91FF90EF90DF90CF904F
:10457000BF90AF9008951F93CF93DF9300D000D0EA
:104580001F92CDB7DEB749835A8389819A8166230A
:1045900059F0222349F00E94F224182F682F8981B4
:1045A0009A810E946F2503C00E943F25182F6981C0
:1045B0007A81812F0F900F900F900F900F90DF91C5
:1045C000CF911F910C949516CF93DF93EC010E942D
:1045D0007A1ACE01805E9109089710F0209719F49D
:1045E00062E27AE102C06BE17AE1CE01DF91CF9124
:1045F0000C942F1ECF93DF93EC01805E91090897F6
:1046000010F0209719F461E17AE102C067E07AE1E5
:10461000CE010E942F1E8C2FDF91CF910C94DA1ABD
:1046200080E0089598E088E10FB6F894A89580930B
:1046300060000FBE90936000A895F894D8E0CEEF8C
:1046400028E3299320E0299314BEFFCF089578949E
:104650001F920F920FB60F9211248F939F93AF93D7
:10466000BF9380918E0290918F02A0919002B091A1
:1046700091020196A11DB11D80938E0290938F022D
:10468000A0939002B0939102BF91AF919F918F91AF
:104690000F900FBE0F901F9018959C014FB7F89484
:1046A00080918E0290918F02A0919002B091910220
:1046B0004FBF821B930B08952FB7F89480918E0201
:1046C00090918F02A0919002B09191022FBF089516
:1046D0001F920F920FB60F9211248F939F93AF9357
:1046E000BF9380910603811113C080918E02909137
:1046F0008F02A0919002B09191024196A11DB11D2F
:1047000080938E0290938F02A0939002B0939102B7
:10471000BF91AF919F918F910F900FBE0F901F90FF
:10472000189580919402882321F11092060320E4C9
:1047300088E190E00FB6F894A895809360000FBED2
:104740002093600083B7817F846083BF83B78160DB
:1047500083BF7894889583B78E7F83BF0FB6F89414
:10476000A89580916000886180936000109260003D
:104770000FBE08959C012A5F3F4FFC014281461302
:1047800001C01282019682179307B9F708959C0120
:10479000FC0132969FEF80E04191461789F09F3FE0
:1047A00019F4411101C0982F8F5F8630A9F79F3F00
:1047B00039F0F901E90FF11D97FDFA95628308952B
:1047C0000895CF9384E090E00E949C29C82F82E254
:1047D00090E00E949C292C2F30E0A901582BCA019F
:1047E000CF9108956AEE7EEF80E090E00E94C829A4
:1047F00060E082E090E00E94AA2960E083E090E01F
:104800000E94AA291092020310920303109204033B
:104810001092050360E084E090E00E94AA2960E025
:1048200082E290E00E94AA2960E085E090E00E9488
:10483000AA2960E086E090E00E94AA296FEF87E055
:1048400090E00E94AA2940E050E0BA0188E090E0A0
:104850000E94BC2960E08DE090E00E94AA2940E01F
:1048600050E0BA0188E190E00E94BC2960E087E155
:1048700090E00E94AA2940E050E0BA018CE190E06B
:104880000E94BC2960E070E080E290E00E94C829AC
:1048900040E050E0BA0188E190E00E94BC2940E08D
:1048A00050E0BA018FE090E00E94BC2940E050E067
:1048B000BA0183E190E00C94BC2980910103882324
:1048C00031F010920103109200031092FF0208953C
:1048D00080959091FE0289238093FE020895809531
:1048E0009091FD0289238093FD020895CF93C0919A
:1048F0007502C2FB992790F9981781F080FBC2F9E5
:10490000C09375026091740284E090E00E94AA292D
:104910006C2F82E290E0CF910C94AA29CF91089558
:104920001092FB021092FA021092F90208958091FF
:104930002C0290912D02892B89F00E945C232091FA
:10494000FF0230910003AC01421B530B81E0209128
:104950002C0230912D024217530708F480E0817039
:1049600008959091FD028091FE02892B9091FC02A6
:10497000892B8093B30280910103882301F18091F8
:104980002C0290912D02892B29F00E9497248111ED
:104990000E945D249091B30280910103892B809342
:1049A000B302E5EBF2E097E080E0915029F021912D
:1049B0002223D9F38F5FF9CF81110E945D24E0910A
:1049C0007802F0917902309731F00280F381E02D86
:1049D00083EB92E0099408958091F802811110927E
:1049E000F8020895BF92CF92DF92EF92FF920F9359
:1049F0001F93CF93DF938C01C090BE03D090BF0371
:104A0000E090C003F090C1038091020390910303F2
:104A1000A0910403B0910503C82AD92AEA2AFB2AE7
:104A2000CFE1D0E0D701C6010C2E04C0B695A79502
:104A3000979587950A94D2F780FD04C0219790F747
:104A4000B12C07C0BC2EB8018C2F0E947920019791
:104A5000A9F38B2DDF91CF911F910F91FF90EF90D4
:104A6000DF90CF90BF900895CF93DF93EC010E9429
:104A7000F224BE010E947920DF91CF9108959E3FDC
:104A800061F1292F220F920F890F682F6695669585
:104A90006695982F977085E0689FB001112440E0DB
:104AA00050E080E0FB01E40FF51FED50FD4F208149
:104AB00030E0092E02C0369527950A94E2F721705E
:104AC0003327042E01C0220F0A94EAF7822B4F5F8E
:104AD0005F4F4530510531F7089580E008959E3FBE
:104AE00051F1292F220F920F890FE82FE695E695B5
:104AF000E695877051E001C0550F8A95EAF785E089
:104B0000E89FF0011124ED50FD4F20E030E070E00F
:104B10004081CB01022E02C0969587950A94E2F758
:104B20008170819584278523842781932F5F3F4F50
:104B30002530310569F708956093BE037093BF0374
:104B40008093C0039093C1030C94521A0F931F9348
:104B500041E050E060E070E004C0440F551F661F64
:104B6000771F8A95D2F74095509560957095809102
:104B7000BE039091BF03A091C003B091C1038A010D
:104B80009B01082319232A233B23C901B8011F9144
:104B90000F910C949C252091FB0280958223809399
:104BA000FB02982F977041F430E0482F082E000C3C
:104BB000550B2417350721F49091750292FF07C019
:104BC0008595859585950E94A6250C949024089539
:104BD0000F931F9341E050E060E070E004C0440F89
:104BE000551F661F771F8A95D2F78091BE0390915B
:104BF000BF03A091C003B091C1038A019B01082BA0
:104C0000192B2A2B3B2BC901B8011F910F910C9432
:104C10009C259091750292FD10C098E0899F9001AB
:104C20001124262B2093FB020E94E8250E945C237E
:104C30009093FA028093F90208950C94E82560930A
:104C400002037093030380930403909305030C9471
:104C5000521A2091F2029091C10256E02917A9F050
:104C600030E0529FF001539FF00D1124EE53FD4FA1
:104C70007181761306C07081781303C0728174133A
:104C800006C02F5F3F4F2770E9CF80E0089581E095
:104C90000895452B41F06F3F41F491E08F3F09F0BB
:104CA00090E0892F03C081E001C080E08170089509
:104CB0008091F2029091C102891719F08F5F87707D
:104CC000FBCF0895BF92CF92DF92EF92FF920F93A6
:104CD0001F93CF93DF938091C00282958F7009F06C
:104CE00062C08091BD02882309F45DC0C091F202C8
:104CF00086E0B82E8091C102C81709F454C0F09024
:104D0000BB02E090BC02C090BE02D090BF02A601E0
:104D10006E2D8F2D0E944926D0E0811141C0BC9E8E
:104D20008001BD9E100D1124F801EE53FD4F5181FD
:104D30005E1136C040814F1133C08281811130C075
:104D4000E380F480EC18FD0820E06091BD027091D2
:104D5000BE028091BF020E94BB22809142029091CC
:104D60004302E816F906E0F48091C0028F7080617A
:104D70008093C002F801E953FD4F80818F708061FC
:104D800080838BEB92E00E940D04DF91CF911F9105
:104D90000F91FF90EF90DF90CF90BF900C9458262A
:104DA0002196C770A7CFDF91CF911F910F91FF90F0
:104DB000EF90DF90CF90BF900895FC0193819330E6
:104DC000B1F068F4913081F0923009F068C087E664
:104DD00094E09093BD038093BC038BE508959132DA
:104DE00051F19232E1F15BC082EC94E016C0828115
:104DF000813089F040F08230B1F0833009F04FC04B
:104E000083E194E012C083E694E09093BD03809325
:104E1000BC0384E008958FE494E09093BD038093F5
:104E2000BC0382E1089581E394E09093BD038093F5
:104E3000BC038CE108958281813049F028F08230F2
:104E400071F582EB94E005C089E794E002C082E945
:104E500094E09093BD038093BC0389E0089584811E
:104E600095818130910599F050F00297C1F480E36B
:104E700093E09093BD038093BC0381E8089583ED94
:104E800093E09093BD038093BC0380E4089581EB8D
:104E900093E09093BD038093BC0382E2089580E089
:104EA00008958091B70308950F931F938091BE03D7
:104EB0009091BF03A091C003B091C1038C019D01EB
:104EC0000670112722273327BC01CD0106301105BA
:104ED0002105310511F4686001C0677F1F910F91B2
:104EE0000C949C25CF93DF938091EA03835087FD38
:104EF000E4C09091E903CCE0D0E0C91BD109C451D2
:104F0000DC4F9091E8039031D0F4883019F0109282
:104F1000AC03D1C08091AC03E82FF0E0E931F1059A
:104F2000B4F7E457FC4F9E01285F3F4F999191934E
:104F30002C173D07D9F7885F8093AC03BCC09D3226
:104F400009F0A0C0883009F0B6C083EC8093C40398
:104F50008AE580931A011092BB0388818076D9F18B
:104F6000803209F084C08981813069F48C819D810F
:104F7000892B09F07CC08EEA93E09093BD03809367
:104F8000BC0388E075C0823041F48DEA93E09093D1
:104F9000BD038093BC0381E06BC08A3021F48B8118
:104FA0008093AD0364C0893009F061C08A819B8120
:104FB0008115924009F0DCC08C819D81892B09F01C
:104FC000D7C081E08093BA038E819F819093B9030B
:104FD0008093B803CDC09A811092CD03898181114D
:104FE00006C01092CE032DEC33E082E03BC085304A
:104FF00019F49093EB0333C08630B9F48B81813080
:1050000041F0823031F0833021F0813211F0823270
:1050100021F4CE010E94DD2601C080E090E490934F
:10502000BB038F3F09F4A4C023C0883089F08930C6
:1050300019F49093B60313C08A3069F08B3079F479
:105040008BE48093D003809303048093DC0307C038
:1050500026EB33E002C02DEC33E081E003C02DEC01
:1050600033E080E03093BD032093BC0301C080E0B7
:105070009F81911104C09E81981708F4892F809315
:10508000190119C08091BB0387FF15C08091B80337
:105090009091B903892B09F475C08091BA038130CE
:1050A00009F070C088818093B7031092B903109201
:1050B000B803109219011092EA0380911A0184FF3B
:1050C0004CC0809119018F3F09F447C0C82F893027
:1050D00008F0C8E08C1B809319019091C40388E804
:1050E00089278093C403CC2359F18091BC0390910C
:1050F000BD032091BB0326FF12C0A4ECB3E02C2F0C
:10510000AC01445C5340FA01EA0FFB1FE491119695
:10511000EC931197215011962111F5CF08C0E5ECC1
:10512000F3E0DC012C2F3D9131932150E1F7019602
:105130002FEF2C0F820F911D9093BD038093BC0322
:105140006C2F85EC93E00E94C802CC5FCC3019F044
:105150008FEF80931901C0931A0184E199B19C707B
:10516000A9F48150D9F71092EB031092E7030EC017
:10517000888187FF05C08E8190E89093BB037FCF25
:105180008FEFFACF8EE180931A0195CFDF91CF9107
:1051900008951F93CF93DF93162FEA01288124FFF0
:1051A00005C0398128E82327298302C02AE52883FE
:1051B000212FFC01CE010296DC0131913D9321505B
:1051C0001216DCF3612F0E94C8021C5F1883DF9166
:1051D000CF911F9108952091020424FF05C042E061
:1051E00054E066E00C94C9280895CF93DF9300D073
:1051F0001F92CDB7DEB790918B03981307C0209113
:10520000890330918A0326173707A1F080938B0317
:1052100070938A036093890389837B836A83809177
:10522000020484FF07C042E054E063E0CE0101962F
:105230000E94C9280F900F900F90DF91CF91089591
:10524000BC0184E00C94F528BC0183E00C94F528A3
:10525000CF93DF93CAE0D0E08091CF0384FF1AC0E0
:1052600080918703909188039817F1F028E0829F3E
:10527000C00111244FEC53E068E0895F9C4F0E940D
:10528000C9288091870390E001968F7099278093B9
:1052900087030AC00E9472278FE99FE00197F1F708
:1052A00000C000002197C1F6DF91CF910895CF9300
:1052B000DF93EC01A0918803B0E0CD0101968F70DF
:1052C000992720918703281779F093E0AA0FBB1F35
:1052D0009A95E1F7A95FBC4F98E0FE0101900D920D
:1052E0009A95E1F7809388030E9472270E942829EB
:1052F00088E0FE01AEEAB3E001900D928A95E1F7F5
:10530000DF91CF910895FB01DC0102C005900D9261
:1053100041505040D8F70895DC01CB01FC01F999C8
:10532000FECF06C0F2BDE1BDF89A319600B40D92F1
:1053300041505040B8F70895F999FECF92BD81BD14
:10534000F89A992780B50895A8E1B0E042E050E0CE
:105350000C948E29262FF999FECF92BD81BDF89A23
:10536000019700B4021639F01FBA20BD0FB6F894A9
:10537000FA9AF99A0FBE08950396272F0E94AB2937
:105380000E94AA29252F0E94AB29242F0C94AB2917
:105390000196272F0E94AB290C94AA29DC01CB018E
:1053A00003C02D910E94D92941505040D0F7089553
:1053B000262FF999FECF1FBA92BD81BD20BD0FB631
:1053C000F894FA9AF99A0FBE01960895AA1BBB1B8E
:1053D00051E107C0AA1FBB1FA617B70710F0A61BF5
:1053E000B70B881F991F5A95A9F780959095BC0116
:1053F000CD01089597FB072E16F4009407D077FD92
:1054000009D00E94E62907FC05D03EF490958195CD
:105410009F4F0895709561957F4F0895EE0FFF1F80
:105420000590F491E02D099469279627692778273C
:10543000872778270895FB01DC0102C001900D92B7
:1054400041505040D8F70895DC0101C06D934150A0
:0A5450005040E0F70895F894FFCFF4
:10545A00FF010151275729EB28242920291E641E00
:10546A003201002808140AAF00FF5AA8EFACACD1E9
:10547A008C12ED9632353433818283E200E900EAF8
:10548A0000B500B600B700CD008301CC008A0192B6
:10549A000194012102230224022502260227022A5C
:0A54AA0002B300B4006F00700000B0
:00000001FF
